{
  "address": "0x6A47346e722937B60Df7a1149168c0E76DD6520f",
  "abi": [
    {
      "inputs": [],
      "stateMutability": "nonpayable",
      "type": "constructor"
    },
    {
      "anonymous": false,
      "inputs": [
        {
          "indexed": true,
          "internalType": "address",
          "name": "seller",
          "type": "address"
        },
        {
          "indexed": true,
          "internalType": "address",
          "name": "buyer",
          "type": "address"
        },
        {
          "indexed": false,
          "internalType": "uint256",
          "name": "amount",
          "type": "uint256"
        }
      ],
      "name": "InvoiceCreated",
      "type": "event"
    },
    {
      "inputs": [
        {
          "internalType": "address",
          "name": "seller",
          "type": "address"
        },
        {
          "internalType": "address",
          "name": "buyer",
          "type": "address"
        },
        {
          "internalType": "uint256",
          "name": "amount",
          "type": "uint256"
        }
      ],
      "name": "createInvoice",
      "outputs": [
        {
          "internalType": "uint256",
          "name": "",
          "type": "uint256"
        }
      ],
      "stateMutability": "nonpayable",
      "type": "function"
    },
    {
      "inputs": [],
      "name": "id",
      "outputs": [
        {
          "internalType": "uint256",
          "name": "",
          "type": "uint256"
        }
      ],
      "stateMutability": "view",
      "type": "function"
    },
    {
      "inputs": [
        {
          "internalType": "uint256",
          "name": "",
          "type": "uint256"
        }
      ],
      "name": "invoices",
      "outputs": [
        {
          "internalType": "uint256",
          "name": "id",
          "type": "uint256"
        },
        {
          "internalType": "address",
          "name": "seller",
          "type": "address"
        },
        {
          "internalType": "address",
          "name": "buyer",
          "type": "address"
        },
        {
          "internalType": "uint256",
          "name": "amount",
          "type": "uint256"
        },
        {
          "internalType": "bool",
          "name": "paid",
          "type": "bool"
        }
      ],
      "stateMutability": "view",
      "type": "function"
    },
    {
      "inputs": [
        {
          "internalType": "uint256",
          "name": "invoiceId",
          "type": "uint256"
        }
      ],
      "name": "payInvoice",
      "outputs": [],
      "stateMutability": "nonpayable",
      "type": "function"
    },
    {
      "inputs": [],
      "name": "usdcToken",
      "outputs": [
        {
          "internalType": "address",
          "name": "",
          "type": "address"
        }
      ],
      "stateMutability": "view",
      "type": "function"
    }
  ],
  "transactionHash": "0x132eb0fc9e9197f7ae7e8ee0048e52d4a88cf164eff51cbc5a34105bf6075254",
  "args": [],
  "numDeployments": 1,
  "solcInputHash": "5f6ec6cf2b79245e1cf7b60e3056227d",
  "bytecode": "0x608060405234801561001057600080fd5b50600280546001600160a01b0319167375faf114eafb1bdbe2f0316df893fd58ce46aa4d179055610472806100466000396000f3fe608060405234801561001057600080fd5b50600436106100575760003560e01c806311eac8551461005c5780632455048a1461008c5780634e6d1405146100ad578063ac60a6cd1461012f578063af640d0f14610144575b600080fd5b60025461006f906001600160a01b031681565b6040516001600160a01b0390911681526020015b60405180910390f35b61009f61009a366004610397565b61014d565b604051908152602001610083565b6100f96100bb3660046103d3565b6000602081905290815260409020805460018201546002830154600384015460049094015492936001600160a01b0392831693929091169160ff1685565b604080519586526001600160a01b039485166020870152929093169184019190915260608301521515608082015260a001610083565b61014261013d3660046103d3565b61026d565b005b61009f60015481565b60006001600160a01b03841661016257600080fd5b6001600160a01b03831661017557600080fd5b8160000361018257600080fd5b600180600082825461019491906103ec565b90915550506040805160a081018252600180548083526001600160a01b0388811660208086018281528a8416878901818152606089018c8152600060808b018181529881528086528b90208a518155935198840180549988166001600160a01b03199a8b161790559051600284018054919097169816979097179094559451600386015592516004909401805494151560ff199095169490941790935593518681529293927fb895d4cc35c4181f8280cebd87134b22189052ef0530b1dbbf6db80fc066091c910160405180910390a351949350505050565b6000818152602081905260409020600481015460ff16156102de5760405162461bcd60e51b815260206004820152602160248201527f54686520696e766f6963652068617320616c7265616479206265656e207061696044820152601960fa1b606482015260840160405180910390fd5b6002805490820154600183015460038401546040516323b872dd60e01b81526001600160a01b039384166004820152918316602483015260448201529116906323b872dd906064016020604051808303816000875af1158015610345573d6000803e3d6000fd5b505050506040513d601f19601f820116820180604052508101906103699190610413565b50600401805460ff1916600117905550565b80356001600160a01b038116811461039257600080fd5b919050565b6000806000606084860312156103ac57600080fd5b6103b58461037b565b92506103c36020850161037b565b9150604084013590509250925092565b6000602082840312156103e557600080fd5b5035919050565b8082018082111561040d57634e487b7160e01b600052601160045260246000fd5b92915050565b60006020828403121561042557600080fd5b8151801515811461043557600080fd5b939250505056fea264697066735822122003805cc2a6a6de2b010208ee43e9e1f9d81d07ffaa81b4b45d6d0d1e391a2a5f64736f6c63430008110033",
  "devdoc": {
    "kind": "dev",
    "methods": {},
    "version": 1
  },
  "userdoc": {
    "kind": "user",
    "methods": {},
    "version": 1
  },
  "storageLayout": {
    "storage": [
      {
        "astId": 96,
        "contract": "contracts/YourContract.sol:YourContract",
        "label": "invoices",
        "offset": 0,
        "slot": "0",
        "type": "t_mapping(t_uint256,t_struct(InvoiceData)91_storage)"
      },
      {
        "astId": 98,
        "contract": "contracts/YourContract.sol:YourContract",
        "label": "id",
        "offset": 0,
        "slot": "1",
        "type": "t_uint256"
      },
      {
        "astId": 100,
        "contract": "contracts/YourContract.sol:YourContract",
        "label": "usdcToken",
        "offset": 0,
        "slot": "2",
        "type": "t_address"
      }
    ],
    "types": {
      "t_address": {
        "encoding": "inplace",
        "label": "address",
        "numberOfBytes": "20"
      },
      "t_bool": {
        "encoding": "inplace",
        "label": "bool",
        "numberOfBytes": "1"
      },
      "t_mapping(t_uint256,t_struct(InvoiceData)91_storage)": {
        "encoding": "mapping",
        "key": "t_uint256",
        "label": "mapping(uint256 => struct YourContract.InvoiceData)",
        "numberOfBytes": "32",
        "value": "t_struct(InvoiceData)91_storage"
      },
      "t_struct(InvoiceData)91_storage": {
        "encoding": "inplace",
        "label": "struct YourContract.InvoiceData",
        "members": [
          {
            "astId": 82,
            "contract": "contracts/YourContract.sol:YourContract",
            "label": "id",
            "offset": 0,
            "slot": "0",
            "type": "t_uint256"
          },
          {
            "astId": 84,
            "contract": "contracts/YourContract.sol:YourContract",
            "label": "seller",
            "offset": 0,
            "slot": "1",
            "type": "t_address"
          },
          {
            "astId": 86,
            "contract": "contracts/YourContract.sol:YourContract",
            "label": "buyer",
            "offset": 0,
            "slot": "2",
            "type": "t_address"
          },
          {
            "astId": 88,
            "contract": "contracts/YourContract.sol:YourContract",
            "label": "amount",
            "offset": 0,
            "slot": "3",
            "type": "t_uint256"
          },
          {
            "astId": 90,
            "contract": "contracts/YourContract.sol:YourContract",
            "label": "paid",
            "offset": 0,
            "slot": "4",
            "type": "t_bool"
          }
        ],
        "numberOfBytes": "160"
      },
      "t_uint256": {
        "encoding": "inplace",
        "label": "uint256",
        "numberOfBytes": "32"
      }
    }
  }
}